:10000000020132759400759300759200759100A2FB
:1000100090E433783F7E34000A12011BA290E4334F
:1000200078327580FE7E3401F412011B7580FD7EEE
:100030003401F412011B7580FB7E3401F412011BA4
:100040007580F77E3401F412011B7580FF7E340148
:10005000F412011BA291E433783F7E34000A1201AE
:100060001BA291E43378327580F77E3401F41201DB
:100070001B7580FB7E3401F412011B7580FD7E34FC
:1000800001F412011B7580FE7E3401F412011B7510
:1000900080FF7E3401F412011BA292E43378387E93
:1000A00034000A12011BA292E433782B7580FA7E89
:1000B0003401F412011B7580F57E3401F412011B2A
:1000C0007580FA7E3401F412011B7580F57E3401CF
:1000D000F412011B7580FFA293E433680302000F42
:1000E0007E34000A12011BA293E433680302000F5E
:1000F0007580F07E3401F412011B7580FF7E34019F
:10010000F412011B7580F07E3401F412011B75801E
:10011000FF7E3401F412011B02000F7D237E3404A4
:10012000517D131B147D3178F87D121B147D2178CD
:10013000EC227584017E44041FE47A49B01B4478A4
:08014000F97EF800070200033C
:00000001FF
